{
  "contractName": "RetailerRole",
  "abi": [
    {
      "inputs": [],
      "payable": false,
      "stateMutability": "nonpayable",
      "type": "constructor"
    },
    {
      "anonymous": false,
      "inputs": [
        {
          "indexed": true,
          "name": "account",
          "type": "address"
        }
      ],
      "name": "RetailerAdded",
      "type": "event"
    },
    {
      "anonymous": false,
      "inputs": [
        {
          "indexed": true,
          "name": "account",
          "type": "address"
        }
      ],
      "name": "RetailerRemoved",
      "type": "event"
    },
    {
      "constant": true,
      "inputs": [
        {
          "name": "account",
          "type": "address"
        }
      ],
      "name": "isRetailer",
      "outputs": [
        {
          "name": "",
          "type": "bool"
        }
      ],
      "payable": false,
      "stateMutability": "view",
      "type": "function"
    },
    {
      "constant": false,
      "inputs": [
        {
          "name": "account",
          "type": "address"
        }
      ],
      "name": "addRetailer",
      "outputs": [],
      "payable": false,
      "stateMutability": "nonpayable",
      "type": "function"
    },
    {
      "constant": false,
      "inputs": [],
      "name": "renounceRetailer",
      "outputs": [],
      "payable": false,
      "stateMutability": "nonpayable",
      "type": "function"
    }
  ],
  "bytecode": "0x608060405234801561001057600080fd5b506100203361002560201b60201c565b610184565b61003d81600061004060201b6101f51790919060201c565b50565b600073ffffffffffffffffffffffffffffffffffffffff168173ffffffffffffffffffffffffffffffffffffffff16141561007a57600080fd5b61008a82826100f260201b60201c565b1561009457600080fd5b60018260000160008373ffffffffffffffffffffffffffffffffffffffff1673ffffffffffffffffffffffffffffffffffffffff16815260200190815260200160002060006101000a81548160ff0219169083151502179055505050565b60008073ffffffffffffffffffffffffffffffffffffffff168273ffffffffffffffffffffffffffffffffffffffff16141561012d57600080fd5b8260000160008373ffffffffffffffffffffffffffffffffffffffff1673ffffffffffffffffffffffffffffffffffffffff16815260200190815260200160002060009054906101000a900460ff16905092915050565b610378806101936000396000f3fe608060405234801561001057600080fd5b50600436106100415760003560e01c80635da09b88146100465780638ec4f505146100a2578063db0e6a2f146100e6575b600080fd5b6100886004803603602081101561005c57600080fd5b81019080803573ffffffffffffffffffffffffffffffffffffffff1690602001909291905050506100f0565b604051808215151515815260200191505060405180910390f35b6100e4600480360360208110156100b857600080fd5b81019080803573ffffffffffffffffffffffffffffffffffffffff16906020019092919050505061010c565b005b6100ee61012a565b005b600061010682600061013590919063ffffffff16565b50919050565b610115336100f0565b61011e57600080fd5b610127816101c7565b50565b610133336101de565b565b60008073ffffffffffffffffffffffffffffffffffffffff168273ffffffffffffffffffffffffffffffffffffffff16141561017057600080fd5b8260000160008373ffffffffffffffffffffffffffffffffffffffff1673ffffffffffffffffffffffffffffffffffffffff16815260200190815260200160002060009054906101000a900460ff16905092915050565b6101db8160006101f590919063ffffffff16565b50565b6101f28160006102a190919063ffffffff16565b50565b600073ffffffffffffffffffffffffffffffffffffffff168173ffffffffffffffffffffffffffffffffffffffff16141561022f57600080fd5b6102398282610135565b1561024357600080fd5b60018260000160008373ffffffffffffffffffffffffffffffffffffffff1673ffffffffffffffffffffffffffffffffffffffff16815260200190815260200160002060006101000a81548160ff0219169083151502179055505050565b600073ffffffffffffffffffffffffffffffffffffffff168173ffffffffffffffffffffffffffffffffffffffff1614156102db57600080fd5b6102e58282610135565b6102ee57600080fd5b60008260000160008373ffffffffffffffffffffffffffffffffffffffff1673ffffffffffffffffffffffffffffffffffffffff16815260200190815260200160002060006101000a81548160ff021916908315150217905550505056fea165627a7a72305820f532b8c358c5079fce6e523ebfa7f2b46c194623eb30b0fd6680de0d69d924bf0029",
  "source": "pragma solidity ^0.5.8;\n\n// Import the library 'Roles'\nimport \"./Roles.sol\";\n\n// Define a contract 'RetailerRole' to manage this role - add, remove, check\ncontract RetailerRole {\n  using Roles for Roles.Role;\n\n  // Define 2 events, one for Adding, and other for Removing\n  event RetailerAdded(address indexed account);\n  event RetailerRemoved(address indexed account);\n  \n  // Define a struct 'retailers' by inheriting from 'Roles' library, struct Role\n  Roles.Role private retailers;\n  \n  // In the constructor make the address that deploys this contract the 1st retailer\n  constructor() public {\n    _addRetailer(msg.sender);\n  }\n\n  // Define a modifier that checks to see if msg.sender has the appropriate role\n  modifier onlyRetailer() {\n    require(isRetailer(msg.sender));  \n    _;\n  }\n\n  // Define a function 'isRetailer' to check this role\n  function isRetailer(address account) public view returns (bool) {\n    retailers.has(account);\n  }\n\n  // Define a function 'addRetailer' that adds this role\n  function addRetailer(address account) public onlyRetailer {\n    _addRetailer(account);\n  }\n\n  // Define a function 'renounceRetailer' to renounce this role\n  function renounceRetailer() public {\n    _removeRetailer(msg.sender);\n  }\n\n  // Define an internal function '_addRetailer' to add this role, called by 'addRetailer'\n  function _addRetailer(address account) internal {\n    retailers.add(account);\n  }\n\n  // Define an internal function '_removeRetailer' to remove this role, called by 'removeRetailer'\n  function _removeRetailer(address account) internal {\n    retailers.remove(account);\n  }\n}",
  "sourcePath": "/Users/mariepatterson/udacity/blockchain/term2/ethereumFarmingProject6b/project-6/contracts/coffeeaccesscontrol/RetailerRole.sol",
  "compiler": {
    "name": "solc",
    "version": "0.5.8+commit.23d335f2.Emscripten.clang"
  },
  "schemaVersion": "3.0.16",
  "updatedAt": "2019-11-07T03:32:49.350Z",
  "devdoc": {
    "methods": {}
  },
  "userdoc": {
    "methods": {}
  }
}